:020000041000EA
:1000000000B5324B212058609868022188439860DF
:10001000D860186158612E4B002199600221596106
:100020000121F02299502B49196001219960352056
:1000300000F044F80222904214D00621196600F024
:1000400034F8196E01211966002018661A6600F04E
:100050002CF8196E196E196E052000F02FF8012189
:100060000842F9D1002199601B49196000215960AB
:100070001A491B48016001219960EB211966A021F2
:10008000196600F012F800219960164914480160C1
:100090000121996001BC002800D000471248134993
:1000A000086003C880F30888084703B5996A0420EC
:1000B0000142FBD001200142F8D103BD02B5186610
:1000C0001866FFF7F2FF186E186E02BD00000240BE
:1000D000000000180000070000035F00212200005C
:1000E000F4000018222000A00001001008ED00E03C
:1000F00000000000000000000000000074B24E7A12
:1001000000200420F7010010C3010010C5010010F9
:10011000C1010010C1010010C1010010C101001097
:10012000C1010010C1010010C1010010C701001081
:10013000C1010010C1010010C9010010CB01001065
:10014000CD010010CD010010CD010010CD01001037
:10015000CD010010CD010010CD010010CD01001027
:10016000CD010010CD010010CD010010CD01001017
:10017000CD010010CD010010CD010010CD01001007
:10018000CD010010CD010010CD010010CD010010F7
:10019000CD010010CD010010CD010010CD010010E7
:1001A000CD010010CD010010CD010010CD010010D7
:1001B000CD010010CD010010CD010010CD010010C7
:1001C00000BE00BE00BE00BE00BE00BEEFF3058054
:1001D000103800BEF2EB8871BC070510DC07051073
:1001E0003402001090A31AE700201F49086006C8D7
:1001F00081F3088810471D48006800282FD10DA4FE
:100200000ECC002902D000F012F8F9E71849194A7B
:10021000002000E001C19142FCD1174988471749ED
:1002200088471749884700BEFDE701C901C29A42C5
:10023000FBD37047DC070510C000002040160020EB
:100240007C1D051000000420000004207C1D05100A
:10025000001004200010042000000000704709482E
:1002600003F08CFC0047000008ED00E0000000D027
:10027000601600201CDF0020C1230010950600102E
:10028000E92400105756000006005250ABB36053EB
:10029000F870011006005250861C0302087101100C
:1002A000060052505422A29D1871011005005250B0
:1002B000DE65F4687C1D0510F8B5C04606480749A0
:1002C000091A8B10C90FC91810B5491003D0044B77
:1002D000002B00D0984710BD40160020401600208B
:1002E00000000000054B10B5002B03D00449054861
:1002F00000E000BFFFF7E2FF10BDC04600000000B5
:1003000074CD0020486C011010B51100024804F0B3
:100310003FFA002010BDC046486C011070B5061DA4
:10032000040030000D0010F0A9FE174B01002A0058
:10033000180004F02DFA002009F0EAFA20600028E5
:100340001DD0210009F084F82068104909F092F8C6
:1003500020680F4909F080F820680E4909F098F8E4
:1003600015F02EFC0C4B2A003100206808F0B8FC78
:10037000040063425C4115F02DFCE0B270BD0748FB
:1003800004F014F90020F9E75C6C01100903001077
:100390001D050010A103001025040010786C011049
:1003A0000B0070B505000C000D3300D170BD18486E
:1003B00004F0EEF90022174B1A70002C1CD11648DD
:1003C00004F0F4F828680028F0D0002109F040F883
:1003D0000021286809F04EF80021286809F03CF84F
:1003E0000021286809F054F8286809F05BFC011E18
:1003F00007D100232B60D9E72100084804F0C8F991
:10040000E0E7074804F0C4F9286809F091F9F0E73B
:10041000906C011004DF0020A46C0110B46C01107A
:10042000C46C011070B504000E00151E30D13448A4
:1004300004F0BCF833490123352230000BF0DAFC1C
:10044000011E01D1002070BD2F4804F0A1F9012147
:100450002E4B2F4849421D7004F09AF9206800285D
:10046000F0D0002108F0F4FF0021206809F002F824
:100470000021206808F0F0FF0021206809F008F84A
:10048000206809F00FFC011E32D100232360D9E758
:100490001100204804F07CF900221C4B29001C4864
:1004A0001A7004F075F920680028CBD0002108F0FC
:1004B000CFFF0021206808F0DDFF0021206808F050
:1004C000CBFF2068002108F0E3FF206809F0EAFB79
:1004D000002802D100232360B5E70F4B010018006C
:1004E00004F056F9206809F023F90D204042F1E7A5
:1004F000094804F04DF9206809F01AF9C5E7C0462B
:10050000F86C01100C6D0110446D011004DF002027
:10051000B46C0110E46C0110C46C0110F0B54E46CF
:100520004546DE465746E0B5140005000E001A00A9
:1005300085B0002C57D0218900290AD1200007F06E
:10054000EDFF002005B0F0BCBB46B246A946A04670
:10055000F0BD3C4804F01CF93B4BA2469B463B4B8C
:1005600001959846072399460296039453465D8960
:10057000584629005E6804F00BF9002D19D00024BC
:100580000F27013E09E04B46234228D00134404664
:10059000315D04F0FDF8A5420BD92742F3D10134B7
:1005A0000A2003F0B7FF4046315D04F0F1F8A542A0
:1005B000F3D80A2003F0AEFF53461B689A46002B7F
:1005C000D4D1019D039C2900029E200022890C3178
:1005D00008F0C6F83000218908F036FBAEE720208D
:1005E00003F098FFD2E71A4804F0D2F80121194B22
:1005F000194849421C7004F0CBF828680028A0D0A4
:10060000002108F025FF0021286808F033FF0021B1
:10061000286808F021FF2868002108F039FF2868C1
:1006200009F040FB002802D100232B608AE70B4B26
:100630000100180004F0ACF8286809F079F80D20E2
:100640004042F1E7706D0110806D0110906D011056
:10065000606D011004DF0020B46C0110C46C011047
:1006600070B505240121002010F0F4FE074803F0C6
:100670009DFF074D2100280004F08AF8FA20013C74
:10068000800001F0F7F8002CF4D170BDF86D011076
:10069000006E0110F8B5DE4657464E464546E0B5B9
:1006A00004F082F8704B1C68704B186810F0CAFE9A
:1006B00000287AD06E4803F079FFFFF7D1FF0120C0
:1006C0006C4903F071FE041E00D186E06A4B6B4D4D
:1006D000436001236A492B70FFF720FE002800D1F8
:1006E0008BE0684B9A46684B9846684B9946684B36
:1006F0009B46122000F078F9D02380221B06D202FC
:100700009A6201210022122000F0ECF8614ED02202
:100710000124120653689B0C1C42FBD12B78002B42
:100720000DD10120534903F03FFE071E0FD0524B5D
:10073000534943602C70FFF7F1FD00280ED03000C4
:1007400003F034FFFA20400001F094F8DFE7504650
:1007500003F02CFF404603F029FFF0E70121287049
:100760004942484604F014F838680028E7D00021D0
:1007700008F06EFE0021386808F07CFE0021386821
:1007800008F06AFE0021386808F082FE386809F037
:1007900089FA011E02D100233B60D0E7584603F0DE
:1007A000F7FF386808F0C4FFF5E710F0EDFD3A4BAD
:1007B0001B68002B01D0394ADA62394803F0F6FE93
:1007C000220038493848394B10F0ECFD002800D1A0
:1007D00070E7374803F0EAFE6CE72A4B18009A46A8
:1007E00003F0E4FE284B1800984603F0DFFE274B89
:1007F000224D9946264B9B467BE70121234B2870CF
:1008000049421800994603F0C3FF206800281CD015
:10081000002108F01DFE0021206808F02BFE0021B9
:10082000206808F019FE0021206808F031FE2068D9
:1008300009F038FA164B011E9B460DD100232360A8
:10084000104B9A46104B984653E70E4B9A460E4B68
:1008500098460F4B9B464CE7180003F099FF206821
:1008600008F066FFEAE7C046880F00208C0F0020E2
:10087000146E01100C080000C0A800FA04DF00206C
:1008800088130000C46D0110E06D0110B46C0110FC
:10089000C46C0110206E011064CD00200C6E01109C
:1008A000986D0110900F00209C0F00201027000071
:1008B000B06D0110094A10B594464024830063448A
:1008C0001A68C000624080341440802252011343F1
:1008D0001C60034B9C466044416010BD04C0014055
:1008E00000400140074B80009C4660440368C900FB
:1008F00092000A435A400C231A4080235B010343B1
:100900001A60704704C00140084B80009C46604458
:10091000002905D0802302229B0103431A607047FF
:10092000C02302229B0103431A60F8E704C0014080
:10093000D0231B061B6830B50500584243412F20C9
:100940005B4283430D48EC08844607202840800022
:10095000814020000A4D3C3063448000A400415196
:100960001B19002A04D0802292011343196030BD64
:10097000C022920113431960F9E7C046304101409B
:1009800000400140D023F0B5C6461B0698461B68C0
:100990000C4F9B001600FA5804000D0000B51042E1
:1009A00009D1290014430D203200FC5000F072F9E7
:1009B00080BCB846F0BD01F0B3FD43461B689B0008
:1009C000FA58EEE760DD002010B504000D2000F0BD
:1009D0005BFAD0231B061B6802499B005A58A243AE
:1009E0005A5010BD60DD00200123D0228340120642
:1009F00093629361094A40219446830063441A68D4
:100A0000C0004A40803111408022520113431960D6
:100A1000034B9C46052360444360704704C001407B
:100A200000400140024B18688007C00F7047C04665
:100A300000C00640EFF3108072B6034A1368002B23
:100A4000FCD0BFF35F8F70472C0100D0BFF35F8FE6
:100A50000022024B1A6080F3108870472C0100D0EE
:100A600070B5EFF3108C72B60D4D2B68002BFCD0D7
:100A7000BFF35F8F0724CB08C618C05C01230C406E
:100A8000A3401C000440034207D118433070BFF359
:100A90005F8F2C608CF3108870BD100001F028FD72
:100AA0002C0100D0F8B54746CE46884680B5EFF316
:100AB000108C72B6214D2C68002CFCD0BFF35F8FD8
:100AC0009A422CD8D4080727055D0619012417403F
:100AD000BC402C421FD007210127894609E0D408D9
:100AE000055D06194C4639001440A1400C0029420E
:100AF00011D001329342F2D201204042BFF35F8F06
:100B000000220E4B1A608CF3108800280FDBC0BC4B
:100B1000B946B046F8BD254310003570EEE7BFF387
:100B20005F8F00232B608CF31088012040424346E6
:100B3000002BECD0089801F0DBFCC0462C0100D063
:100B400030B5EFF3108C72B60A4C2368002BFCD042
:100B5000BFF35F8F072301220B409A40CD08435D0E
:100B600093434355BFF35F8F002323608CF31088BA
:100B700030BDC0462C0100D00021044B044ABFF315
:100B80005F8F02C39342FAD17047C046000100D084
:100B9000800100D0044A1078431CDBB2172B00D927
:100BA000102313707047C046B20F002010B5064BDB
:100BB000064C82B00100009318221F232000FFF78B
:100BC00071FF02B010BDC0462C6E0110D020002075
:100BD00001238340002904D0034A1360034A1360B1
:100BE0007047034A1360FBE780E200E000E100E0A9
:100BF00080E100E001238340014A13607047C04652
:100C000000E200E0084B10309B688000C358002BC6
:100C100007D0064A00209B1A2F229A424041C0B2B8
:100C200070470020FCE7C04600ED00E0B40F002054
:100C3000024B10309B688000C058704700ED00E008
:100C400070B50D00EFF3108672B60F4A1368002BD3
:100C5000FCD0BFF35F8F0D4B10309B6884001B5995
:100C60000B4A934203D09D4201D001F059FC074B3F
:100C70009B681D51BFF35F8FBFF35F8F0022024B54
:100C80001A6086F3108870BD240100D000ED00E0EA
:100C9000CD010010F0B557464E46DE464546E0B55C
:100CA00085B0060000911700EFF3108B72B66A4A08
:100CB0001368002BFCD0BFF35F8F0025674B5D5797
:100CC0009A46002D00DA8BE06B00654C01935B19AE
:100CD0009B009846A146C1444B4652469B7910362C
:100CE0001370604BB6009B6899590B1B2F2B33D99F
:100CF0005D4B994200D0ACE0019B42469C465B4B69
:100D00006544AD0063535A4B0232A218043B9B1A50
:100D10001B05584A5B0D651913436B80564B012127
:100D2000AB80FF23AB71009BEF71AB604B460B4375
:100D300019004C4B9B689951BFF35F8FBFF35F8FD6
:100D40000022454B1A608BF3108805B0F0BCBB46FF
:100D5000B246A946A046F0BD01200A008243D379DD
:100D60008C46BB4231D84546130044491B1B5B41AE
:100D70005943090D3D4B63533D4B02356519043B07
:100D80005B1B1B053B4D5B0D2B43AA464D466B8001
:100D90000425AC465546E044131F44441B1B1B0569
:100DA0005B0D1D434B46997100999D8099604946A2
:100DB000DF71334B01431360BBE75800C01880005C
:100DC0002018C179B94211D902000623D356002B4D
:100DD000F3DA0293131D9A462A4B6146039319E0F6
:100DE00001F09EFB002553465D576DE79088029306
:100DF0004005131D9A46031561469C464046D4445F
:100E0000634604302018181AE0230005400D1B0229
:100E10001843039004235B429C46E14450464B46F2
:100E20001B1A1B055B0D9C46124B95719846634639
:100E3000404603439380019B5A199200039BA418D8
:100E4000A380029B0E4AA371009B2260E771A360FE
:100E50006FE701F065FB4FE7240100D00EDF0020B3
:100E6000B40F002000ED00E0CD01001000A1FFFF55
:100E7000E40F002000E0FFFF01BDFFFFAAAA000071
:100E80000148804701BD0000F0B5DE4657464E469A
:100E90004546E0B50C0083B0EFF3108872B65D4AAA
:100EA0001368002BFCD0BFF35F8F5B4B5B499A68E4
:100EB000030010339F00D5598D4239D0A5424AD046
:100EC000574EAA1B2F2A33D80122924682409146C0
:100ED0004846544A1268104001904846524A1060F1
:100EE000BFF35F8FEFF305829346002A35D093421C
:100EF00001D001F015FB2A0053469A4390688442C2
:100F000008D175E04B005B189B00F3189868A0426D
:100F100034D01A00062151560029F3DA844253D006
:100F2000019B002B26D04A46404B1A603D4B1A606D
:100F3000394B9B68DD51BFF35F8FBFF35F8F00229A
:100F4000344B1A6088F3108803B0F0BCBB46B2463D
:100F5000A946A046F0BD0D00EAE72A0053469A4391
:100F600090688442D6D1062010561300002809DA72
:100F70000D0031E04A462C4B1A60D9E7062018567E
:100F8000002822DB42001118890074188A46A168E3
:100F90009960E179D971062161569971002925DBA3
:100FA000A488F11A6405241554440919E02409059C
:100FB000490D24022143998013181D4A9B00117882
:100FC000F31899711070ABE713005946002914D13A
:100FD000FF3191711749918015490A789A71164A23
:100FE0009B1B5B415A43120D0A7099E71349E2E7D4
:100FF0000620105613000028C4DA114A1149D21AEB
:10100000083A5002400D014399800F4952080A43A3
:10101000DA8085E7240100D000ED00E0CD0100106A
:10102000B40F002000E100E080E100E080E200E099
:101030000EDF002001BDFFFFAAAA000001BD0000D5
:10104000EE0F002000F0FFFF00F8FFFF032310B5B4
:101050000400074A18409446C0009C43FC33834078
:101060006444226881409A4313000B43236010BDFF
:1010700000E400E070B5EFF3058101240443EFF3D1
:10108000108C72B6214A1368002BFCD0BFF35F8F1F
:101090001F4B05001F4AED1A6D416A43120D1E4D8C
:1010A0008900AE6852B27658A6421CD00621595625
:1010B00091421CD012215956914222D01E215956DC
:1010C000914220D02A2159560324914210D0134B2B
:1010D00019781A708171BFF35F8F00220B4B1A6071
:1010E0008CF3108870BDAB680D4C5C50EFE70024AA
:1010F0006100091989005B18FF21997109499980DC
:10110000E5E70124F4E70224F2E7C046240100D019
:10111000B40F0020AAAA000000ED00E00EDF0020BE
:10112000CD01001001BDFFFF054B064A1360064AC2
:10113000136053609360D360136153619361704790
:101140008080808000E400E004E400E01F2110B50E
:10115000091A0248FFF7F4FC10BDC0461ADF002050
:1011600010B5084B084C82B0010000930022052303
:101170002000FFF797FC002801DB1F23181A02B09C
:1011800010BDC046486E01101ADF002070B5040083
:101190000E001500FFF7FEFC0100200000F006F82D
:1011A000A680E580BFF35F8F70BDC046024B9C46B2
:1011B00061448900016070474000003410B50400AC
:1011C000FFF7E8FC01002000FFF7F0FFFF23237189
:1011D000BFF35F8F10BDC04610B50400FFF7DAFC07
:1011E00001002000FFF7E2FFFF23A380BFF35F8F22
:1011F00010BDC04610B504000120FFF7D7FC034B1B
:10120000C3189B002360BFF35F8F10BD4000003404
:10121000034B9C46614489000160BFF35F8F7047B8
:101220004000003483680B4810B584466144624432
:101230001201090159189B185C684A680120944200
:1012400001D802D00020C0B210BD1A680B689A42C3
:10125000F9D8F7E7FFFFFF0F0A4B1968EFF310808B
:1012600072B60A68002AFCD0BFF35F8F1B68BFF319
:101270005F8F00221A6080F3108840BF0020002199
:101280007047C04684DE0020F8B5574645464E46B6
:10129000DE46E0B598460CAB1C780DAB1B7807001A
:1012A00091469A460568002C5ED1AC7B002C3BD061
:1012B000660029683619033E89194B78AB73002BF9
:1012C00000D1EB7300238B704B700B702D4BE21829
:1012D000BB6812019B184A461A6042465A600A9A35
:1012E0009A600B9ADA6000238B704B700B706B7BEB
:1012F0009B46002B2BD022005946A8686B68984764
:101300002A68002816D05B4658465B005B44961955
:10131000033BB070D118D35C002B00D073705B46D8
:101320000C706B735C4513D0F0BCBB46B246A9464B
:10133000A046F8BD5B465B005B44033BD3189C7042
:101340009119925D002A00D05A705B460B706C7345
:101350004A464346387D00F0AFFB051E0AD10E9B7E
:10136000002BE1D01D70DFE7660029683619033EC7
:101370008919ABE75346002BF1D12100386800F002
:10138000C5FDECE7FFFFFF0FF0B5DE4657464E46C2
:1013900045460023E0B58BB00893674B8200D458D4
:1013A00000239B46099000F027FB02000B006068B9
:1013B000EFF3108A72B6564601680029FCD0B24697
:1013C000BFF35F8F21684F7B8C46002F2ED0A5681E
:1013D0005A49A94679180901894449460868496863
:1013E00005000E00AD1A9E41002E5FDD02000B00CD
:1013F000099800F061FB0023002299460023069221
:101400000793002398466368BFF35F8F5A461A60BC
:101410008AF310884346002B12D10028C3D10BB0A9
:10142000F0BCBB46B246A946A046F0BD0023002250
:101430009946002306920793002300209846E2E78E
:10144000089B494618023843C047626805000E00F1
:10145000EFF3108A72B61368002BFCD0BFF35F8FD6
:10146000002E40DB2B00334302D02369002B55D1E3
:101470002368D97B002905D01A6848004118521802
:10148000033A57709A7B002A00D19F73DF73E2689A
:10149000013FD35D0133D3555B4623616368BFF3DE
:1014A0005F8F5A461A608AF310887CE7002E01D1BC
:1014B000002D9BD10021604600F0A6FC4B461A6827
:1014C0005B68069207934B469B6898464B46DB68E1
:1014D0009946E368DB19013B1B7808931B02034321
:1014E000236100208FE72369002BC1D0069A079B58
:1014F0008021521BB34109068B4202D30122104BBB
:101500005242002104910131039149460191414623
:10151000200002970091FFF7B7FEBDE700F06CFADC
:101520002A00330012184B41802109068B42E8D370
:101530000122034B5242E4E794CD0020FFFFFF0F4E
:10154000FFFFFF7F10B5144C6368002B04D00A2105
:101550001248FFF72BFE10BD2300114A102120680E
:1015600000F068FB032000F03BFA032000F012FBC0
:1015700003200C4900F05AFAFFF70CFB0A4B9C467B
:1015800003232375D0231B061B6860446375074B38
:1015900080006060DC60DAE7FC0F002084DE002061
:1015A00025120010891300104000003494CD002053
:1015B00000487047FC0F0020F0B557464E464546A0
:1015C000DE46E0B585B0019310AB1B7806000393AF
:1015D00000239A46984600927268EFF3108B72B619
:1015E0001368002BFCD0BFF35F8F3568AC7B002CF9
:1015F00000D16FE067002B683F19033FDB195A7871
:10160000AA73002A00D1EA734B4AA118B2680901F3
:10161000521800980199106051600E9991600F99CD
:10162000D16042469A705A701A706B7B9946002BB3
:1016300000D170E022004946A8686B6898472A6884
:1016400000285BD04B4648465B004B44D719033B10
:10165000B870D118D35C002B00D07B704B460C7057
:101660006B734C4558D0F3681B19013B18787368AD
:10167000BFF35F8F42461A608BF310885346002BEE
:1016800008D10002204305B0F0BCBB46B246A946D3
:10169000A046F0BD039B002B4BD00E9B00200F9962
:1016A0009847030004000D000B4342D000291ADACA
:1016B000009A019B121BAB410092019380221206FB
:1016C000934204D301231D4C5B4200930194039B7E
:1016D0009A4681E77368BFF35F8F1C608BF31088B5
:1016E00001204042CFE700F087F9802224184D41C5
:1016F0001206009401959542E9D3E3E74B465B005F
:101700004B44033BD3189C70D119D25D002A00D002
:101710005A704B460B706C73307D009A019B00F041
:10172000CBF9824600289ED02100306800F0EEFB05
:1017300099E70020A7E7C046FFFFFF0FFFFFFF7FED
:10174000F8B50B0004004168EFF3108572B60A6823
:10175000002AFCD0BFF35F8F2068D9B2427B8A4257
:1017600009D0FF261E4002687700BE199219033A7D
:101770009278002A12D0FF26E2681E409219013AA0
:101780001B0A1278DBB29A420DD000206368BFF3C7
:101790005F8F00221A6085F31088F8BD2169994295
:1017A000F3D12261F1E700F0B1FBEFE7407D704734
:1017B000F0B504000D0006267642F717C646361926
:1017C0006F4100B584B08F4214D811D000F014F9E5
:1017D00032003B00121A8B41002B15DC002B3ED04F
:1017E0002000290000F012F904B080BCB846F0BD1A
:1017F0008642EBD90026002700F0FEF832003B00BD
:10180000121A8B41002BE9DD002302930193154B43
:101810003200009314483B00FFF7CEFE0028DFDBC8
:1018200000239846BC46114A114F7B6A9C4504D858
:10183000B96AB142D4D29C45D2D11168EFF310807D
:1018400072B60B68002BFCD0BFF35F8F1368BFF339
:101850005F8F4146196080F3108820BFE5E7002ABA
:10186000BED0D1E759120010FC0F002084DE00200A
:101870000040054070B5060000F0BEF8FA220400F2
:101880000D00002330000021920002F03FFD802374
:10189000001969411B06994202D3012002494042C6
:1018A000FFF786FF70BDC046FFFFFF7F70B5EFF307
:1018B000058305000C0084B0002B0AD0164A0020D6
:1018C000536A9C4203D8926A0130AA421FD304B0E3
:1018D00070BD124E02930193114B02000093300031
:1018E0000B00FFF769FE011EE8DD20BF3000FFF7A7
:1018F00027FF094B00205A6A9442E8D89B6A0130BE
:10190000AB42E4D2A41A631E9C41E0B2DFE7E31AC3
:101910005A1E9341D8B2DAE700400540FC0F002080
:1019200059120010F0B5EFF30582D6464F464646F1
:101930001000C0B51038EFF3108872B6214C236840
:10194000002BFCD0BFF35F8F0123190081401E4D97
:101950001F006963AA461D4D29601D4D2E78AC46B7
:101960003500C5402F402B4215D053465F6A194BB6
:101970008500EB589F4218D36246174B8E43EB58B5
:101980001670BFF35F8F0022226088F31088002B4F
:1019900006D0984704E0BFF35F8F276088F3108874
:1019A000E0BCBA46B146A846F0BD0C4B92009C463E
:1019B000624413681360BFF35F8F0023236088F3D2
:1019C0001088EDE7280100D0004005403C7005403C
:1019D00019DF0020A0DE0020A01E0020D03F05401F
:1019E00010B5034B01001800024AFFF739F810BD8B
:1019F00008DF0020706E0110034B596A0A00986AD4
:101A0000596A8A42FAD1704700400540064A536A33
:101A10009942FCD807D1044B02E05A6A914202D1A4
:101A20009A6A8242F9D370470040054070B50400BD
:101A30000D00EFF3108672B61A4A1368002BFCD023
:101A4000BFF35F8F002D1BD02000FFF7F1F8164980
:101A500081420AD02000FFF7F3F801212000FFF7B0
:101A6000B7F80123A340114A1360114BA400E550BD
:101A7000BFF35F8F00220B4B1A6086F3108870BD96
:101A80000121A1400A4BA200D5500A4B20001A7830
:101A90008A4305491A70FFF7F7F900212000FFF784
:101AA00097F8E5E7280100D02519001038600540B7
:101AB000A01E002019DF0020F0B54F46D64646464E
:101AC000C0B507002E4C616A0D00A66A616AA94282
:101AD000FAD18B4208D805D00120E0BCBA46B14605
:101AE000A846F0BDB242F7D9EFF3108A72B6254886
:101AF00001680029FCD0BFF35F8F0125BD4022495A
:101B00001F4C8846097889462943C9B28C4641460C
:101B100060460870391D890065630A511B49B80089
:101B20004350216A0020294219D0616A0800A66A40
:101B3000616A8142FAD18B4219D801D1B24216D8DA
:101B4000CC450BD00E4B1F221D625D6301233A4032
:101B500093400F4A136043464A461A700120BFF370
:101B60005F8F0022074B1A608AF31088B5E70020C8
:101B7000BFF35F8F0022034B1A608AF31088ACE733
:101B800000400540280100D019DF0020A0DE002021
:101B900080E200E0EFF3108C72B60A490B68002B6C
:101BA000FCD0BFF35F8F01238340074A07481362CD
:101BB00002789A430270BFF35F8F00230B608CF3AF
:101BC00010887047280100D00040054019DF002030
:101BD00070B505000E001400002923D0002A12D091
:101BE00080686B689847296800280ED063001B192D
:101BF0007200033B9219CB18033A9E7088188A5CD6
:101C0000002A11D10470300070BD73009B1962006E
:101C1000033B1219CB18033A9C7088188A5C002A7F
:101C200005D106702000EFE75A700470EBE75A7098
:101C30000670F7E730B583600023CCB243730133FD
:101C4000047342608373C4730D000068012C06D9CD
:101C5000421C0133DBB2137003329C42F9D1FF21E5
:101C600029404B005B18C01800230338437030BD77
:101C700070B505000C1E07D0630001681B19033BFB
:101C8000CB185A78002A01D1200070BD500080186E
:101C90000338091800204E78487021005870280039
:101CA000FFF796FF310004002800FFF7E1FF060070
:101CB000002C26D00028E7D021003200A8686B68ED
:101CC0009847296800280ED073009B196200033BD7
:101CD0001219CB18033A9C7088188A5C002A00D02D
:101CE0005A700670D0E763001B197200033B92190B
:101CF000CB18033A9E7088188A5C002A00D05A706C
:101D000004703400C0E7C046F0B557464546DE468D
:101D10004E46E0B50D006F0001687F19033F0400D7
:101D2000C85D83B00192CA19002850D043001B1827
:101D3000033BCB185E78B446002E1AD1019E002ECC
:101D400042D0E67B002E04D073009B19CB18033BD6
:101D50005D70A37B002B00D1A573E57300282FD104
:101D60000023537003B0F0BCBB46B246A946A04660
:101D7000F0BD72006244033A8A1851788846002107
:101D8000517089465970320001002000FFF720FF92
:101D900043468246002B07D05B0021684344033B47
:101DA000CB185A78002A16D1424651462000FFF738
:101DB0000FFF2168019BCA19002BC2D10028CFD088
:101DC00043001B18033BCB1800219970C8E7019B07
:101DD000002BB6D1C4E750008018033809184878A2
:101DE000834648464870587041462000FFF7F0FE91
:101DF000594680462000FFF73BFF41460200200085
:101E0000FFF7E6FE8046CFE7F0B557464546DE468B
:101E10004E46E0B583B00191457B04006F00006839
:101E20007F19033FC15DC219002952D04B005B18D6
:101E3000033BC3185E78B446002E1CD1019E002ED1
:101E400044D0E67B002E04D073009B19C318033BDB
:101E50005D70A37B002B00D1A573E573002931D100
:101E6000002328005370617303B0F0BCBB46B24638
:101E7000A946A046F0BD72006244033A8218507829
:101E80008046002050708146587032002000FFF7D5
:101E90009FFE43468246002B07D05B0021684344E7
:101EA000033BCB185A78002A17D1424651462000EE
:101EB000FFF78EFE019B01002068C219002BC0D1E4
:101EC0000029CDD04B005B18033BC318002098704D
:101ED000C6E7019B002BB4D1C2E75000801803383D
:101EE0000918487883464846487058704146200093
:101EF000FFF76EFE594680462000FFF7B9FE4146C7
:101F000002002000FFF764FE8046CEE770B50500B2
:101F100000292CD0437B8B422ED04C0000686418E3
:101F2000033C0419A278002A21D053009B18033BDC
:101F3000C25CC6188A4202D11BE0002A08D05300B6
:101F40009B18033BC3185A788A42F6D162785A70BC
:101F5000002301222800A3706370FFF7D5FE697B80
:101F600002002800FFF734FE6873012000E0002023
:101F700070BD63783370EBE701221900FFF7C4FEF0
:101F8000F2E7C04610B50C2082B000F0AFF9FEF7C2
:101F900049FD002810D0864B86488649864A18603D
:101FA00059609860D960186159619861D961186267
:101FB00059625A6202B010BD804CA06700F0ECF983
:101FC00001227F4B1A60636C012BFCD103227D4BF5
:101FD0001A607A4A936B012BFCD1013301217A4AB2
:101FE0007A480093043300F02DF90523784A0093D2
:101FF0000121784800F026F9774B5A68FF2A02D869
:10200000802252005A6080226E4B694C12011A6085
:102010002169002905D0606901F00AFE013001380C
:10202000FDD1E0226C4B6D4819680A400260022223
:102030001968514001320A40042102609A68114235
:10204000FCD08021664A09011160802252005A604A
:10205000644B2361644B5968FF2900D85A600322FE
:102060000121574B1A60604A93681942FCD0E02363
:10207000106803405D480360126803234A40022150
:102080001340594A036093681942FCD08021584B91
:10209000090119608021574B490051606361564B1B
:1020A0005A68FF2A00D859608022544B12011A60E6
:1020B000E169002905D0606901F0BAFD01300138FD
:1020C000FDD1E0234C4A11680B404D490B60802143
:1020D0004C4B090119608021364B49005160E36186
:1020E000494B5A68FF2A00D859608022474B120199
:1020F0001A60216A002905D0606901F099FD01305C
:102100000138FDD1E023404A11680B4040490B6083
:102110008021404B0901196080235B0053608022BD
:10212000244BD20223623C4B5968914200D25A6040
:1021300080223A4B12011A60616A002905D0606959
:1021400001F076FD01300138FDD1E023324A1168FB
:102150000B4033490B608021324B09011960802309
:10216000DB025360144B63622F4B5A68FF2A02D87C
:10217000802252005A6080222C4B12011A60A16901
:10218000002905D0606901F053FD01300138FDD10F
:10219000E023254A11680B4025490B608021254B1F
:1021A0000901196080235B005360124BA36101E7B2
:1021B00060160020006CDC021BB7000000800040AD
:1021C0003CB0004030B00040002F68590080024011
:1021D000008C864700C002403080004030900040B4
:1021E00030A00040001BB7003C8000403C90004005
:1021F0003CA00040405973075480004054B0004058
:102200005490004054A000406080004060B0004006
:102210006090004060A000406C8000406CB00040C6
:102220006C9000406CA000404880004048B00040E6
:102230004890004048A00040014B8000C0587047C3
:1022400060160020F8B504000C2017001D000E00D9
:1022500001F0EEFC43011B1A9901C91AC9000918C3
:102260008901380001F0E4FC069B29041B03194393
:102270002368002B20DB194B194DE3185A425341B8
:102280008022520194461B03164A63441360164A87
:1022900013601F00AA689743FBD1C023221D9B0136
:1022A000134321222660A0601A602268002AFCDA0B
:1022B0000822E1601A60F8BD3F2322681340B34250
:1022C000D9D1A3681B051B0D8342D4D1EE22E3684C
:1022D000D20213408B42CED1EDE7C0460040FDBF95
:1022E00000C0004000E0004000F000408023024AAF
:1022F0009B000343D36270470080054010B58024E3
:102300001C4BE4051C6000281AD001231A4C18430A
:102310001A4BDC611A4C44401C625962986280215D
:10232000144BC9051960174817490860E021C90412
:102330001960002A07D18022144B12061A6010BDC2
:102340000E4BD861EBE753019B1A9B009A18802330
:1023500012015B049A4209D213000D490B60074B2E
:102360005A608022094BD2051A60E8E7094B1A002F
:10237000F3E7C04600B00540D3C007B00080054079
:102380002D3FF84FFCFF01000820014000A0054050
:10239000E4330020FFFFFF00AA23064A1B0113605D
:1023A0002F230549D360054B19605368002BFCDAD5
:1023B0007047C0460040024000B0FA000060024092
:1023C0002C4B2D4A70B51A602C4A2D4B2D491A60A2
:1023D00014008B689C43FBD12B4D2C4EB54208D288
:1023E000013E761BB60808CD984723000134B3425E
:1023F000F9D1FFF7C7FD264A214B1A60214A93689D
:10240000DB43DB01DD09002BF9D14022214B224CBB
:10241000224E9A675A671A67DA66B44208D223686E
:102420002000002B20D00834FEF7D6FEB442F6D3AD
:102430001B4C1C4EC022B168200001F0D5FFB460D7
:10244000FEF79AFBFEF770FEFFF77CF8164C174E6E
:10245000B44208D2013E361BB60808CC98472B0080
:1024600001359E42F9D170BD0834FEF7A7FEB44293
:10247000D5D3DDE700E00040BFCDFBFEFE7F3C0092
:1024800000F0004000C00040281600203816002050
:10249000FFFFFF0100F00140201600202816002059
:1024A0000000002000ED00E038160020401600205B
:1024B00000BEFDE7094A03001068002805D008495E
:1024C000C3188B4207D81360704706480449C318E5
:1024D00010608B42F7D901204042F5E7B02F002071
:1024E000000004201CDF002010B5FFF7E1FFC0460C
:1024F0000FB400B5084883B002F058F8049B002BD5
:1025000007D005A91800019101F012FB034802F061
:102510004DF80120FFF7CCFF946E0110406D0110C3
:1025200010B50148FFF7E4FFA46E01107047C046E4
:10253000F8B557464546DE464E46E0B598460A9BF6
:1025400006009A460D9B0F00934615009B0710D17D
:102550000B9B0C9A93420CD213005C460B9A9D1A6B
:102560005D4422004346013439002020B047A54293
:10257000F7D10B9C6319002C09D01D0053462A1B70
:10258000013C185D39004346B047002CF6D10D9B45
:102590009B070ED55B46EC1A0C9BA34209D99946C2
:1025A0002A004346390020200134B0470135A145B7
:1025B000F6D82800F0BCBB46B246A946A046F8BDF6
:1025C000F0B54F464646D646C0B584B098460EABE9
:1025D0001B7894469946129B0D9C109F119E9A075A
:1025E00024D4002E6AD1BC4220D201221A40924645
:1025F000202C00D1CBE00C9A551E302201E0202C7B
:1026000030D001342A55A742F9D85246002A0DD0BD
:10261000B4420BD20C9A551E3022202C02D126E057
:10262000202C61D001342A55B442F9D1DA0634D5D0
:102630005A0562D4002C5CD10F9A102A00D191E087
:10264000022A00D1A1E030220C9C227001244A46CB
:10265000002A5CD15A0700D47DE02B220C9D2A551C
:1026600001341CE05246002A02D0202E3CD92024FE
:10267000DA0614D55A0512D4202F00D197E0202E67
:102680003BD120261F2234000F9D102D00D181E068
:10269000022D4CD030250C9FBD54202CD7D1039354
:1026A0000C9B62460093029643460194FFF740FF5D
:1026B00004B0E0BCBA46B146A846F0BD0122150000
:1026C0001D40AA461A4227D04A46002A33D10C326E
:1026D0001A4230D1BC429BD2202C00D08BE7202E56
:1026E000C5D8DA06A4D4DAE72024DA06D7D55A0505
:1026F00003D4A74221D0B4421FD00F9A102A21D070
:10270000022A10D0202CCAD022000134C2E72D2288
:102710000C9D2A550134C2E7BC4200D386E7202C29
:1027200000D068E7E1E7202CB9D02200013462250F
:102730000C9FBD54E6E7013ECCE7621E012C00D1A0
:102740007AE7A1E79A0616D4202CA8D078220C9D0F
:102750002A550134D6E71A07A1D520220C9D2A5507
:1027600001349CE79A060ED478220C9C2270302209
:10277000627002246BE7202C91D058250C9A121914
:1027800015700134BEE75822EFE76222EDE7002A18
:10279000A7D1AAE7023C9D0604D478250C9F3D559D
:1027A0001400B1E758250C9F3D551400ACE71F22DB
:1027B0006AE7C04610B5002800D110BD01F0AAFE9E
:1027C000FBE7C0460B0010B5002802D049681B6823
:1027D000984710BDF0B557464E464546DE46E0B533
:1027E00099B08246894690460993229A239B10000D
:1027F000190001F0CEFC002800D0C8E022982399EF
:102800000122D54B524201F0BFFC002800D0BEE0AF
:10281000229823990122D14B524201F0A7FC0028B3
:1028200000D0B4E0229823990022002301F09EFCFE
:10283000002800D0E9E1229E239F8023269ADB0016
:102840001A400D92269A1A4201D1062324933B0086
:10285000334300D0B4E0269B1B0500D5BFE1002325
:1028600000240A930B94002304250C93259B002439
:10287000AB4200D95C1B0223269A1A400D92269A7D
:10288000134203D06B426B415B421C400C9B002BFC
:1028900007D00A9A0B9B3000390001F00EFC0600AD
:1028A0000F00229823990022002301F05FFC0028EA
:1028B00003D0802109067B181F00269AA84B00969A
:1028C00001971340099E0493249B0394029342466C
:1028D00033004946504600F0A7F90400002D67D0A8
:1028E0002020269A4946024013005A4253415B4237
:1028F000621C18400A92330022004530D0470C9ADF
:102900006F1ED317D4185C40D30F9B46002501E0FF
:10291000202D13D008AA94461F23200063440A21C7
:1029200001355E1901F084F93031317020000A213F
:1029300001F07EF926000400092EE9D8052306934C
:10294000002304930A3303935B46099E029310AB62
:102950000A9A009349463300504605970195FFF7C0
:102960002FFE0D9A0400002A22D04246851A259A8D
:10297000AA421DD9B0465746160022004346494692
:1029800020200135B8470134AE42F6D810E0269B2E
:1029900042460493259B49460393249B5046029349
:1029A000229B239C00930194099B00F03DF90400B5
:1029B000200019B0F0BCBB46B246A946A046F0BD07
:1029C000684B78009C46400D604401F0F5FB664A78
:1029D000664B01F08CFB664A664B01F069FB664A68
:1029E0003B031B0B1A4304000D00644B1100300025
:1029F000002201F058FB624A624B01F078FB0200B2
:102A00000B002000290001F053FB01F0EDFB0C90BE
:102A100001F0D2FB5C4A5D4B04000D0001F067FB46
:102A200000225B4B01F044FB01F0DEFB594A834678
:102A3000594B2000290001F05AFB040058460D00B4
:102A400001F0BAFB554A564B01F051FB02000B0056
:102A50002000290001F027FB02000B000A900B91D7
:102A600001F045FB04000D000A980B9902000B00D1
:102A700001F01EFB00220E900F914A4B200029000E
:102A800001F01BFB0022484B01F012FB02000B007F
:102A90002000290001F011FB0022444B01F008FB4B
:102AA00002000B002000290001F007FB0A9A0B9B93
:102AB0000D0080210400C905002001F0F4FA020095
:102AC0000B002000290001F0F3FA394C02000B0042
:102AD0000E980F9901F0F1FA5C440022264B01F0A8
:102AE000E7FA2305002201F002FB04000D000200BA
:102AF0000B00300039000A940B9501F037FB0028D9
:102B00005ED123002A00C6250C9963318D42AD4168
:102B100026996D420435090500D4A7E6134364D015
:102B200030003900234A244B01F026FB002807D04F
:102B3000002230003900214B01F018FB002854D14D
:102B4000249B002B00D191E60D9B5A1E9341249AA1
:102B5000D31A24938AE6C046FFFFEF7FFFFFEFFF03
:102B6000FFF7FFFF01FCFFFFFB799F501344D33FAA
:102B7000B3C8608B288AC63F0000F03F0000F83FD2
:102B800061436F63A787D23F71A379094F930A40CE
:102B90000000E03F1655B5BBB16B0240EF39FAFEBD
:102BA000422EE63F00002C40000024400000184068
:102BB000FF0300002D431CEBE2361A3F80842E41B8
:102BC0000C9B0022013B0C932000164B290001F0C6
:102BD00074FA0A00010003000A910B9293E70023A4
:102BE00000240A930B9400230C93249A0C9B9A4282
:102BF00014DDD31A013B24938023269ADB001A4369
:102C00000023002526920C9330E68022120694467B
:102C1000229B1E00239B63441F000EE60023249387
:102C2000EAE7C04600002440F0B54546DE464E4681
:102C30005746E0B595B08B46904699461E9A1F9B25
:102C40000A9019001000209D01F0A3FA002800D07E
:102C5000B0E11E981F990122C74B524201F086FA3B
:102C6000002800D037E11E981F990122C34B524221
:102C700001F08AFA002800D0A7E01E981F990022D0
:102C8000BF4B01F081FA002800D088E01E981F9900
:102C90000022BC4B01F06AFA002800D07FE01E98A9
:102CA0001F990022002301F061FA002800D0FAE009
:102CB00000230B938023229C229ADB001C401A42A3
:102CC00000D102E1092D00D87EE106A98C462C0036
:102CD000172200233021093C62440133D154EF1AFA
:102CE000202B00D132E1A342F7D10022A44B06925F
:102CF00007931E981F9901F077FA050001F05CFA1E
:102D000002000B001E981F9901F0CDF9069A079B4F
:102D100001F0EDF90890099101F08AFA060001F03E
:102D200047FA02000B000898099901F0BCF900224B
:102D3000954B0890099101F027FA002800D1D2E0C4
:102D40000136300001F034FA069A079B01F014FABC
:102D5000002801D000260135AA46002F00D098E0B7
:102D6000280001F029FA02000B001E981F9901F0BB
:102D70009AF9854B002206000F0001F0F7F90CAB21
:102D80009A46002845D10022300039007E4B01F0E0
:102D9000FBF900283DD1EB073BD5013539E0229BFB
:102DA00042460493219B594603930A981E9B1F9CFD
:102DB0000295009301944B46FFF70CFD15B0F0BC53
:102DC000BB46B246A946A046F0BD229B5B0767D42E
:102DD00003226E4B22990192039121990291009353
:102DE00042464B4659460A98FFF7A2FBE6E706AA79
:102DF00094461723280063440A2101341E1900F069
:102E0000EFFE3031280031700A2100F0E9FE051E86
:102E100076D0202CEBD10323229A1340012B1DD115
:102E2000219B002B1AD00B9B002B00D0BBE0229AD9
:102E30000C33134200D0B6E0219BA34200D887E0B8
:102E400006AB9C4617223023624404E021990134EA
:102E500013558C4259D0202CF8D12024229B019468
:102E60000393219B02935346B9E706AA944617237E
:102E70000A216344300001341D1900F0D9FE3031BD
:102E8000297030000A21013F00F0D2FE092E46D9F8
:102E90000600202CE9D155460CAB20249A46B8E711
:102EA00004223B4B96E71E9A1F9B0020002101F055
:102EB000FAF801230B938023229C229ADB001E90B8
:102EC0001F911C401A4200D0FCE60022314B06271D
:102ED000069207930DE7229B0393219B0293042301
:102EE00001932D4B7BE7002208980999264B01F0AE
:102EF0003DF9002800D02FE7002E4FD101362BE7F7
:102F00000323229A1340012B68D0202CA6D00B9BC0
:102F1000002B1FD02D235246135501349EE75546F2
:102F2000202CB9D030223B19002F4BD0172006A9F6
:102F3000013409180A55202CAED09C42F6D10CAAB7
:102F400092462E2251465C1CCA5462E72024CCE6ED
:102F5000202C83D0229B5B0708D4229B1B0700D424
:102F60007CE7202352461355013477E72B23524642
:102F70001355013472E7C046FFFFEFFFFFFFEF7FFD
:102F800065CDCD4165CDCDC10000E03FB86E0110EB
:102F9000B06E011080842E41C06E0110F30700D482
:102FA000DAE60136D8E6219B013B2193A34200D902
:102FB00046E7AAE7229B0393219B029303230193F5
:102FC000084B0CE72300BAE7074BEA009B185C6844
:102FD0001B682F000693079400248AE6219B002B90
:102FE00093D020E7BC6E011068700110F0B5DE468A
:102FF00057464E464546E0B59FB01C00289B934679
:103000000A93CC4ACC4B8A4609901A60002900D119
:103010004DE1002320789946002800D14FE1C74BAD
:103020004D460893C64B0D930AE02A006E1C5B4682
:10303000099D5146A847350001342078002872D0F8
:103040002528F2D110239946083B9846043B0021DD
:103050009C4602270134207826000300203BDBB287
:10306000102B03D8089A9B00D3589F460300303B8F
:10307000092B6ED900272A2800D18AE000230B9360
:103080002E2800D176E00300683BDBB2122B1BD860
:10309000AC4C9B00E3589F46012301341943DAE707
:1030A00039430134D7E7634601341943D3E74B462C
:1030B00001341943CFE7434601341943CBE780235A
:1030C0005B0070781943013667280AD824281FD975
:1030D0000300253BDBB2422B1AD80D9A9B00D35834
:1030E0009F460300693BDBB20F2B11D801249C40A3
:1030F000954AA446904614400C94624644462242A7
:1031000000D025E20A2B00D101E1072B00D1D8E045
:10311000099C2A005B465146A04770786F1C741CBE
:103120003D0000288CD1A9462C00CB4503D80123B3
:103130005B425B4499465B464A4651460020099DE6
:10314000A84720001FB0F0BCBB46B246A946A04627
:10315000F0BD0027BB00DF1901367F003F18307833
:10316000303F0300303B092BF4D900230B932E286A
:1031700000D088E780237078DB0019430300303BE0
:10318000741C092B00D82CE12A2800D138E1260034
:1031900079E70A9B80CB002F03DB60780A93661CDB
:1031A0006CE70222607811437F420A93661C65E750
:1031B000672800D1C8E1472800D104E2452800D1A2
:1031C00004E207200A9B04910733834319000B9AFA
:1031D000039702920CC90998009201930A912A0060
:1031E0005B465146FFF7F6FA741C050025E7707838
:1031F0006C2800D10DE280235B001943013663E7A0
:1032000080239B007078194301365DE77078682849
:1032100000D1F9E180230136194355E7462800D152
:103220008FE107200A9B04910733834319000B9A0F
:10323000039702920CC90998009201930A912A00FF
:103240005B465146FFF7F0FC741C0500F5E62A00CA
:10325000099C5B46514625206F1CA0473D00741C0D
:10326000EBE6890700D4DEE10A9B2A0098466B1C36
:103270009946434601CB51469846099C5B46C0B2ED
:10328000A047ED19012F00D893E24C46B1465646AF
:10329000099F22005B46013431002020B847AC4230
:1032A000F7D1B24643464E460A93741CC5E6274BF7
:1032B0002078099300239946002800D0AFE6002427
:1032C00033E70A9B1A0008CA9046002B00D1A7E0FA
:1032D000212008430EA98C461F2262440F27AC46CA
:1032E000814615000C9C02E0202C0CD01300380005
:1032F000184001003731092800D807390134295511
:103300001A090F2BF0D8654648460C9494E00A9BA6
:103310001A0008CA12920B9A002A7BD102241A784A
:103320006442002A1DD0013418199C461C00030079
:1033300010E0C046ED2F0010DC330020C86E0110F5
:10334000586F01100C6F0110419000002D250010E6
:103350009C4203D0607801340028F9D16346E01A1A
:103360000C908020C00084460840804660460142A0
:1033700004D00B980C9C844200D90C900220844607
:1033800008400A906046084200D189E1101E00D131
:1033900070E14246002A00D11BE10B9A5B1B90466C
:1033A000A84444462A00B84699465746B246099E64
:1033B00009E05B463900551CB0474B46585D002874
:1033C00000D12CE12A009442F3D156462500BA469A
:1033D00047460A9B002B00D04CE1129B741C0A93B9
:1033E0002BE6002293009B185B0001341A1820780A
:1033F000303A0300303B092BF4D926000B9242E609
:103400000A9B023604CBD043C01702400B9230789F
:103410000A9338E61A78002AA3D00B98441E82E754
:103420001023080080279843113318430B00FF0036
:103430003B40394200D14DE7082305930B9B2A00FE
:10344000049310230393002302930C9B0690019393
:1034500016AB009351465B460998FFF7B1F8434617
:103460000500741C0A93E8E5622800D1A6E15828FB
:1034700000D1B1E180230A00DB001A4090461942D6
:1034800000D189E1112399438C46802362469B0039
:103490001A40100062461A4200D023E1802364469D
:1034A0005B001C401A4200D032E263465B0600D546
:1034B0006BE163460A991B0600D4DBE208C91BB224
:1034C000DA179818504080B20A91DA0F0C92002B4C
:1034D00000D118E280460EAA91461F234B44139553
:1034E000E14645461297B0461E0001E0202C0FD061
:1034F00028000A2100F09CFB013437193031397063
:1035000028000A2100F094FB2F000500092FEDD8B8
:103510004646CC46129F139D634606930B9B059728
:1035200004930A2303930C9B029316AB2A00019485
:10353000009351465B460998FFF742F8741C05005A
:103540007BE5202319436CE680231B01194338E6F1
:10355000782800D07CE180230A00DB001A409146E5
:10356000194200D1A5E20D239943080003330C93BF
:10357000802302009B001A409046184200D078E158
:10358000802304005B001C40184200D007E2430681
:1035900000D453E2FF210A9B04CB0A4090460A93D1
:1035A0004346002B00D026E1103398434B46002BB6
:1035B00000D120E100240B9B069004930C9B0597FF
:1035C00003930023B0E780231B01194320231943F1
:1035D000F7E55B1B99460C9B099C98465B46B346F6
:1035E0005646BA461F002A003B003100A0474B4612
:1035F0000135585D0028F6D143460C933B005746F1
:10360000B2465E469B46E4E6C023B07819430236D4
:103610005AE5C0239B00B0781943023654E556465C
:10362000BA464746D5E6012F00D832E26B1E9846CF
:10363000B8442C00A9464546B8465746B246099EAE
:1036400022005B46013439002020B047AC42F7D15C
:103650000A9B564601CBBA464746984622005B462F
:10366000099C5146C0B2A0474D464346ED190A9306
:10367000741CE2E40C9BA8469F4200D8ADE6444689
:10368000B04656467D19099FED1A22005B4601346B
:1036900031002020B847AC42F7D1B24646469CE6FE
:1036A0000C98874200D8F0E1424698467919B9460D
:1036B0005746B246099E0C1A0C922A005B46013509
:1036C00039002020B047A542F7D15646BA464F46AA
:1036D00043460C9A90467A1C0C921A78101E00D021
:1036E00057E67AE60822072191460A9B07338B4367
:1036F00099444A460ACB0C000A921C43DA0F002C6C
:103700004ED0D817040010904C4011900E94109891
:1037100011990C005C400F940E9B0F9C1B1A8C415E
:103720000E930F940EA988461F230024434412973A
:10373000B046270013951E000E9C0F9DE1460C928B
:1037400001E0202F10D0200029000A22002300F0E1
:10375000ADFA013730322B00F2550D002200040083
:10376000002BEED1092AECD84646CC460E940F9594
:103770000C9A3C00139D129F634606930B9B059782
:1037800004930A2302920393CFE6FF230A9904C904
:10379000134018000A9198E6102399438C4674E66A
:1037A00043460024002BE7D1002300240E930F94FE
:1037B000B8E743464D460A93741C3EE480230A0052
:1037C000DB001A409146194200D140E10D23994394
:1037D0000B3B08000C93CBE680230A00DB001A4069
:1037E0009146194200D162E10D2320209943033311
:1037F00008430C93BCE66123810600D541230EA942
:103800001F228C46DBB262440A3B13971495814613
:1038100045460C9FB0461293160008E03033DBB2E9
:1038200001343355BD420ED3202C0CD00500390095
:10383000280000F0FDF9CBB20929EFD9129A94467D
:103840006344DBB2ECE746464846139F149DB2E65C
:103850006F2800D03CE10C230800984380230A0025
:10386000DB001A409146194200D02AE108230C934C
:103870007EE60A99FA3BFF3B0731994301339C46A8
:103880008C4463464A680A930B6890469C461343EF
:10389000191E06D14B46103100248843002B00D05E
:1038A00089E66121830600D541210EAA91461F2396
:1038B0004B449946C9B20C9B0A3913971495159637
:1038C00045464E46002467469846814612910CE0D4
:1038D0003032D2B2002301343255AB4200D1BCE0C9
:1038E000202C00D1BCE007000D0042460023380028
:1038F000290000F0DBF9D2B2092AE9D9129B9C46D3
:103900006244D2B2E6E74346002B00D004E6E2E58B
:103910000A9C08CCDA0F1392002B00D1A5E0D9172E
:103920005B184B4098460EAA91461F234B440C95BA
:10393000A14645461296E04606001C000A9701E0A3
:10394000202E0FD028000A2100F072F90136A719A5
:103950003031397028000A2100F06AF92F00050083
:10396000092FEDD8C4464C4630000A9F0C9D129E8C
:10397000634606930B9B2A0004930A230393139B2D
:103980000190029316AB009351465B460998059748
:10399000FEF716FE0A940500741CFFF74EFB0A9B07
:1039A00010CB1493002C04D1102398434B46002BCA
:1039B0002CD16123810600D541230EA91F228C46FC
:1039C000DBB262440A3B12971395814645460C9F31
:1039D000B0460A93160008E03033DBB20135735568
:1039E000BC420ED3202D0CD004003900200000F082
:1039F0001FF9CBB20929EFD90A9A94466344DBB286
:103A0000ECE748464646129FA846139D0B9B2A00AA
:103A100004930C9B06900393002302934346019367
:103A200016AB009351465B4609980597FEF7C8FD13
:103A3000149B05000A93741CFFF7FFFA03061FD5B9
:103A40000A9B02CB09040A0C90460A93A8E50C23B2
:103A500099430A3B08000C938AE5B84500D83FE734
:103A60004846139F149D159EA5E54346002B00D0A4
:103A70007EE758E708C9DA17981850400A9124E5FC
:103A80000A9B04CB90460A938AE5010001310C9110
:103A900024E60A9F6C1C01CF2A005B46099D514613
:103AA000C0B2A84725000A97741CFFF7C6FA202366
:103AB00019430C23994300239946103308000C93B3
:103AC00056E508238C460C930D23604698434FE53A
:103AD00010230A009A439446692808D180230A00DB
:103AE000DB001A409046194200D1CEE4CAE41C2300
:103AF0000800984380230A00DB001A4091461942CF
:103B000002D10A230C9333E50A230C93DCE7C04669
:103B100000B585B003910121029000930348130082
:103B20004A4202A9FFF762FA05B000BDC52700109E
:103B300010B5094A0300146884B0002C08D0012293
:103B400000910648524203A9A047012004B010BDCD
:103B500000F02CFD0020F9E7DC330020B527001031
:103B600001480421014B1847301000209D3B0010F4
:103B7000014B9B681847000030100020142310B53B
:103B80000100188804331B88984710BD162310B510
:103B90000100188802331B88984710BDF8B54746C6
:103BA000CE4680B50F1E19D0142399460433040065
:103BB0000025012698464B461888434621681B88F5
:103BC000984701C4431E9841013540420640AF4228
:103BD000F1D13000C0BCB946B046F8BD0126F8E7C7
:103BE000124A936F9B0815D29066D166002905D0C2
:103BF000FFE7FFE7FFE7516F106F704704B58021C3
:103C00000906C2175140002800D0C84312F0CCFF6B
:103C1000002104BDF0B5146E556E576F166FFFF797
:103C2000E3FF1466556657671667F0BD000000D0C5
:103C3000114A936F9B0813D210665166002905D074
:103C4000FFE7FFE7FFE7516F106F704704B50028EB
:103C500001D00020C04312F0A7FF002104BDC046E0
:103C6000F0B5146E556E576F166FFFF7E5FF1466CB
:103C7000556657671667F0BD000000D094464A4A63
:103C8000926F9208624601D228E0C046F0B5464ED7
:103C9000346E756E776F366F00F020F89446424AA6
:103CA00014665566576716676246F0BD94463E4AED
:103CB000926F9208624601D254E0C046F0B53A4E87
:103CC000346E756E776F366F00F04CF89446364A56
:103CD00014665566576716676246F0BD002B24DBF5
:103CE00011D000293EDA00B5C943404200D101316C
:103CF00000F038F8C943404200D10131DB43524261
:103D000000D1013300BD002AEBD1002801D10029E8
:103D100005D00020C90FC90701D1C043410800B533
:103D200012F022FF0022002300BD00B500290ADBAB
:103D3000DB43524200D1013300F014F8C943404242
:103D400000D1013100BDC943404200D10131DB4304
:103D5000524200D1013300F005F8DB43524200D15A
:103D6000013300BD002923D1002B18D1002A0CD02B
:103D7000BC460D4F38667A6600210023FFE7FFE757
:103D8000FFE77A6F386F67467047002801D0074811
:103D9000010000B512F0E8FE0022002300BD020081
:103DA0000B00002000217047000000D0FFFFFFFF44
:103DB000002B00D0BFE0130C28D1002AE7D080B43C
:103DC000114F39667A66FFE7FFE730B4040C7B6F6A
:103DD000396F1B0423433B667A66FFE7FFE7FFE783
:103DE000C04684B27B6F3D6F1B0423433B667A66FB
:103DF000FFE7FFE7C04600232C042D0C7A6F386FD5
:103E000000196941B0BC7047000000D0F0B594467D
:103E10000025140E01D112020835140F01D1120130
:103E20000435940F01D192000235D40F01D1520014
:103E30000135D40B0134254F7C66254C3C660E0CB5
:103E400093B2FFE7FFE7FFE73C6F6643360C77036B
:103E5000BE467343DF0B5B04C01AB941130C7343B6
:103E6000DB18C91ACE086643360CB64493B27343C6
:103E70001F0F1B01C01AB941130C73431F0B1B0505
:103E8000C01AB941860D8F023E436643360C092D98
:103E900024DB520A7243801A7703460A6643360CC3
:103EA00016235B1BDE40DF40BF1964466643821B5E
:103EB0007046043506330100D940A840C01900D32C
:103EC0000131A24206D20023F0BD0000000000D064
:103ED000FFFFFFFF121B0130F3D3F1E709277F1B20
:103EE000FE406446A2B27243801A00D20139220C0D
:103EF0007243130C1204821A99410B007046043568
:103F000013370100F940A840801900D30131002B7C
:103F100002D1A2420AD2F0BD013000D30131121BFE
:103F2000FAD2013BF8D1A24200D2F0BD013000D359
:103F30000131121BF7E7F0B51C0C00D080E00CB487
:103F400000251C0A04D11B02160E33431202083549
:103F50001C0B04D11B01160F3343120104359C0BBB
:103F600004D19B00960F334392000235DC0B02D143
:103F700092185B4101351C00971864410134464F8B
:103F80007C66464C3C660E0CFFE7FFE7FFE7C04649
:103F90003C6F6643360C7703BE4697B27743C01B2F
:103FA00000D20139C01B00D201399FB27743C91B2F
:103FB000C91B170C77437E04FF0B801BB941CE0849
:103FC0006643360C0C2D33DBB644120B1F053A4307
:103FD0001B0B97B27743C01B00D201399FB27743C6
:103FE000C91B170C77433E043F0C801BB941860D5B
:103FF0008F023E43664329277F1BFE400C3D7746D8
:10400000AF40BF1930BCA2B2ABB272437343801A47
:104010009941220C7243130C1204801A9941020038
:104020000B000137001BA941F9D2781E0021F0BD19
:104030000C277F1BFE4077467F0BAF40FF19E0E760
:1040400000245D1C07D0144F7D663966FFE7FFE74B
:10405000FFE7FFE73C6F95B29EB265436643401BA6
:10406000B141150C1E0C6543664336042F0C3E43CC
:104070002D04401BB141994204D202000B002000E4
:104080000021F0BD01D19042F7D3801A994101344B
:104090009942F2D3F6E70000000000D0FFFFFFFFD7
:1040A00048404140484018B4134B5B68019308BD39
:1040B00018B4114B1B68019308BD94460F4A926FC8
:1040C000920805D2624618B40B4BDB68019308BD19
:1040D0000A4AF0B5146E556E576F166F6246FFF7B9
:1040E000F2FF064A1466556657671667F0BD18B4A6
:1040F000014B9B68019308BDE0170020000000D031
:10410000FFB550404240504059404B40594000E0BC
:10411000FFB5154F4C00640D03D0BC4204D10C0315
:1041200014D80020090D09055C00640D03D0BC42C1
:1041300004D11C030AD800221B0D1B0501264B408D
:1041400009D44B4003D58B4200D18242FFBD994236
:10415000FCD19042FFBD0B43DB1803431343F5D062
:10416000C9434918FFBD0000FF07000000B5FFF775
:10417000CFFF804100BDC04600B5FFF7C1FF01D9A8
:10418000002000BD012000BD00B5FFF7B9FF804150
:1041900000BD012040054A00121804D85A00121828
:1041A00001D80020704701207047002070470000B0
:1041B0000021002805D17047C1174840401AFAD0A5
:1041C000C90713B5064B1B6898470CBC441CA2409A
:1041D0001005120B0349091B09051943114310BDB2
:1041E00080DD00201F04000010B54C00620D80230C
:1041F000D218DB00D21A5B057E2A10DD9E3A13DA54
:10420000CC170903490819435242D14064000134D4
:104210001532202A05DAD0400843604310BD002043
:1042200010BD0846604310BDC80FC018013810BD4E
:1042300018B4024B5B6A019308BD0000E017002030
:1042400010B50148FEF754F9B8700110132370B58A
:104250001D78012D15D010DD1B48FFF797FC1B4C76
:1042600001008022200000F0BFF8022D06D018487F
:10427000FFF784FC174B186070BD144C164BA364F9
:10428000F5E7164B114C23606360A360E360236184
:104290006361A361E36123626362A362E3622363F8
:1042A0006363A363E36323646364A364E3642365D8
:1042B0006365A365E36523666366A366E3662367B8
:1042C0006367A367E367D9E753440000E017002062
:1042D0004C33000080DD0020E1420010414200101C
:1042E00007B5604601880A0A0230DF2AFAD1C9B24E
:1042F000820804D3028840880004104300E000686C
:10430000014A5050039007BDE0170020514343433A
:10431000C9188C46110C83B24B4310B4040C614392
:1043200092B280B2504362431C041B0C001910BCB3
:1043300059411304120CC0185141614470470000E8
:1043400010B50148FEF7D4F85C6D0110132310B5C9
:1043500010481C78FFF71AFC0100012C0AD003DD7D
:1043600080220D4800F040F80C48FFF707FC0C4B8A
:10437000186010BD084C5422200000F035F82200CF
:10438000084980322368002B00D121600434944214
:10439000F8D1E9E75346000084DD00204C330000EB
:1043A00080DD00204143001010B50C0011F048FEE4
:1043B000002804D0034B04199C4200D810BD0248C9
:1043C000FEF796F800000420D07001100148042187
:1043D000014B1847401000209D3B0010014B1B680B
:1043E0001847000040100020014B5B681847000090
:1043F00040100020F0B546464F46D646C0B5437D36
:1044000080460E001700002B4BD0002A32DD274BD0
:1044100001259A464B1E00240020994607E0335D93
:104420000A2B2CD02B0001340135BB4213DA002CAF
:10443000F5D133780A2BF5D143461B7D002BF1D102
:104440004346504602211B68984728002B00013440
:104450000135BB42EBDB874204DD4346391A1B685A
:1044600030189847F619013E33780D3B5A425341B4
:1044700042461375E0BCBA46B146A846F0BD4B466D
:104480001B5D0D2BCED0A042DADA4346211A1B6801
:10449000301898474346504602211B689847280029
:1044A000D4E70368110030009847E3E74871011032
:1044B000F0B5C6460B6806000C0000B5802B06D090
:1044C0005A1C2260E418267180BCB846F0BD0F4B20
:1044D0001D68002D16D00B1D98460D4F02E02D696A
:1044E000002D0FD02B68002BF9D03B68002B01D09A
:1044F000AB42F4D1280041462268FFF77BFF2D69CB
:10450000002DEFD101220023DBE7C046A02F0020C1
:10451000AC2F0020F0B5CE46474680B583B06B4641
:104520000600DD1D2870FDF767FA00231A4A1218ED
:104530004B41802109068B4202D30122174B524284
:1045400017490800884612F057FB164B81461C6835
:10455000002C14D0144F02E02469002C0FD02368E3
:10456000002BF9D03B68002B01D0A342F4D12000EE
:1045700001222900FFF73EFF2469002CEFD14B46B2
:10458000002B05D1300003B0C0BCB946B046F0BD29
:10459000404612F0E1FAF5E740420F00FFFFFF7FCF
:1045A00020160020A02F0020AC2F0020F0B5DE4602
:1045B00057464E464546E0B585B0070012F050F923
:1045C0000600FDF719FA00232B4A12184B418021EF
:1045D00009068B4202D30122284B52422849080087
:1045E0008B4612F009FB274B01901C689A46002C61
:1045F0003BD0254B984602ABDD1D0A23994602E0CD
:104600002469002C17D02368002BF9D043461B687F
:10461000002B01D0A342F3D1200032003900FFF774
:10462000E9FE4B462000012229002B70FFF7E2FE35
:104630002469002CE7D1019B002B18D153461C683C
:10464000002C06D06368002B0BD098472469002CFF
:10465000F8D1300005B0F0BCBB46B246A946A04632
:10466000F0BD2469002CEDD1F3E70028F1D05846C5
:1046700012F072FAE2E7C04640420F00FFFFFF7FF0
:1046800020160020A02F0020AC2F00200A4A13681B
:10469000002B05D10CE01A001B691032002B07D04B
:1046A0009842F8D1002902D1036913600161704773
:1046B0000029FCD01060FAE7A02F0020F0B5CE460C
:1046C000474680B5A3B004000D00FDF795F900231F
:1046D000294A12184B41802109068B4202D301223C
:1046E000264B5242264F380012F086FA002306006D
:1046F000019322002B00234801A9FFF709FA019B2F
:104700008046002B14D1204B1C68002C06D0636817
:10471000002B0BD098472469002CF8D1002E25D10E
:10472000404623B0C0BCB946B046F0BD2469ECE7B2
:10473000154B1D689946002D1CD0144C02E02D69C4
:10474000002D0FD02B68002BF9D02368002B01D04F
:10475000AB42F4D12800019A02A9FFF74BFE2D6964
:10476000002DEFD14B4601951C68CEE7380012F0C2
:10477000F3F9D5E70195D1E740420F00FFFFFF7F36
:1047800020160020B1440010A02F0020AC2F0020E4
:104790000FB400B583B004A901C90191FFF78EFFE2
:1047A00003B008BC04B0184710B500F0D9F910BD2B
:1047B0007047C0460022014B1A7070470FDF00207F
:1047C0004B790020FF2B0BD18B79002B08D1CB79B3
:1047D000012B05D1082A03D9024B8A7809301A70B7
:1047E0007047C0460FDF00200120704770B50129D7
:1047F00001D0012070BD13495379107909781B024B
:10480000034300209942F5D15378012B08D0022BA5
:10481000F0D1002064220021FDF770FD0120E9E7BE
:104820009478D278050012021443D20502D5620AA8
:1048300093401D000448FFF7A1F97F2103002140A8
:10484000280098470FDF0020554200000123037025
:10485000004870474C7101104B780A781B021343D3
:104860008A7810B512041A43CB781B06134396229C
:10487000D200934200D010BD0348FFF77FF900211A
:10488000030008009847C04655420000024B1860DC
:10489000024B19607047C046C8200020CC20002081
:1048A00010B5024B1878FCF7A5F910BD10DF0020F9
:1048B000114B70B51A68002A1AD0EFF3108172B646
:1048C00010680028FCD0BFF35F8F00200B4A5960AE
:1048D00010701B68BFF35F8F186081F3108800248D
:1048E0000025074B1878FCF785F92900200070BDDA
:1048F000FA240025A400F4E78CCD002012DF00206C
:1049000010DF002070B5040000200E0001F01CFB39
:10491000002836D0002001F02FFB002831D0FDF711
:104920006BF80023184A12184B41802109068B426C
:1049300016D2164D280012F05FF9002821D0002071
:1049400001F002FB00280FD101200021404200F0BD
:10495000CBFC03246442280012F0FEF8200070BD56
:1049600001220B4B5242E4E7002001F005FB002836
:10497000EAD021003200002001F00AFB041EEAD137
:10498000E7E703246442E9E740420F0088DE0020A5
:10499000FFFFFF7FF8B5DE46574680B505000C00E7
:1049A000FDF72AF80023374A12184B4180210906E7
:1049B0008B4202D30122344B5242344908008A46CA
:1049C00012F01AF9002803D1C0BCBB46B246F8BDAC
:1049D000002001F0B9FA00284AD00026002C43DD5F
:1049E0002B4B9B4614E0A919002001F045FB070062
:1049F00001200021404200F077FC002001F000FB84
:104A0000FCF7FAFF224BF61918605960B4422BDD0F
:104A1000002001F04BFBA71B0200B84200DD3A006A
:104A2000002AE0D101200021404200F05DFC00207E
:104A300001F0E6FA002001F087FA002814D00020E7
:104A400001F034FB0028E1D1FCF7D6FF5B460F00F4
:104A50001A685B68002184460E4812184B419F4239
:104A600002D8D3D19445D1D9504612F075F8ABE7AE
:104A700000200021064B18605960504612F06CF877
:104A8000A2E7C04640420F00FFFFFF7F88DE002004
:104A9000D017002020A1070010B5244C84B00021BD
:104AA000200012F099F800281CD1214B1A68002A26
:104AB00016D0EFF3108172B610680028FCD0BFF357
:104AC0005F8F01241B48596002781B68D2B20470C2
:104AD000BFF35F8F0020186081F31088002A0AD08E
:104AE00004B010BD01200021404200F0FDFB200079
:104AF00012F032F8F4E7FCF75BFD0400FCF77CFFF2
:104B0000FA220023920012184B41802109068B42A1
:104B100002D30122084B524201210291002101914E
:104B2000064920000091FCF747FDD9E788DE002008
:104B30008CCD002012DF0020FFFFFF7FB148001066
:104B4000054B10B51868002804D0044B00221968E2
:104B500001F06AF810BDC046C8200020CC2000201B
:104B6000D02310B51B0684B01C68FCF721FDFCF7B0
:104B70001DFEA04202D0002004B010BD274B1B78C0
:104B800001F076FC2648FCF719FB0120FCF7E8FA57
:104B9000FF23244C244920701840FCF751F820785A
:104BA0000121FCF715F80520FCF72CF8002827D187
:104BB000FCF7FEFC0400FCF71FFFFA220023920022
:104BC00012184B41802109068B4202D30122174B58
:104BD00052420121029100210191154920000091CA
:104BE000FCF7EAFC0822040000211248FFF7F6FB5C
:104BF000002CC0DB10480121FFF748FD0120BBE776
:104C000000220E490520FCF745F8FBF7C3FF094BCE
:104C100001001800FCF7FCFAECE7C046D8070510C5
:104C200088DE002010DF0020994A0010FFFFFF7F80
:104C3000B14800108CCD002050100020A148001079
:104C4000004870471C72011000487047C87101107D
:104C500010B5040017480378002B20D0002C06D193
:104C6000154B16484380063BFF3B038010BD052CC7
:104C700019D8134BA400E0581249002304E0013373
:104C80000A800231132B10D0C25C002AF7D1C02257
:104C90000133DBB25B00920008481343E5E71121C2
:104CA00000F022F8DAE70020E0E7CA2303489B007F
:104CB000DBE7C046D8DE002009040000B82A002047
:104CC000B0710110BA2A002010B5024800F0E0F8D7
:104CD00010BDC04674DD002010B508220149FFF761
:104CE00083FB10BD74DD002030B54B1E012900D1BF
:104CF000A7E0664A11780D112C0030349F2900D9A5
:104D0000A2E00470012B00D1BEE00F2114782140F5
:104D10000C003034092900D998E04470022B00D1EE
:104D2000B2E054782511290030319F2C00D990E051
:104D30008170032B00D1A7E00F2121400C003034FB
:104D4000092900D987E0C470042B00D19CE0947835
:104D50002511290030319F2C00D97FE00171052BEE
:104D600000D191E00F2121400C003034092900D9F5
:104D700076E04471062B00D186E0D4782511290015
:104D800030319F2C00D96EE08171072B00D17BE080
:104D90000F2121400C003034092966D8C471082B3A
:104DA00000D171E014792511290030319F2C5FD892
:104DB0000172092B68D00F2121400C0030340929E1
:104DC00058D844720A2B5FD054792511290030310C
:104DD0009F2C52D881720B2B56D00F2121400C00F2
:104DE000303409294BD8C4720C2B4DD0947925113D
:104DF000290030319F2C00D9073101730D2B43D08E
:104E00000F2121400C003034092901D937310C0021
:104E100044730E2B38D0D1790C11220030329F29E7
:104E200000D9073282730F2B2ED00F220A401100B7
:104E30003731092A01D830321100C173102B23D029
:104E400010300023037030BD07345AE737310C00AF
:104E500063E707316CE737310C0074E707317DE712
:104E600037310C0085E707318EE737310C0095E7C5
:104E700007319DE737310C00A3E70731AAE7373147
:104E80000C00C4720C2BB1D1C018DAE774DD00201D
:104E900030B5002589B004000922002101A8009541
:104EA000FFF79CFA0922002105A80495FFF796FA5E
:104EB0004B236A466846137004A90D2211F044FE84
:104EC0001521082220006944FFF78EFA09B030BD91
:104ED00010B501210520FBF77BFE10BD10B50022A7
:104EE0000021024800F05AF910BDC046D42F00201E
:104EF0008022024B5202DA647047C04600201150F3
:104F0000F0B5C64600B5060000F022F90C231B4D93
:104F1000FF22AB6705201A49FBF7BCFE40239846E9
:104F2000184C402200212000FFF758FA4346012781
:104F3000238321210023144A6770A2601360635405
:104F40005F31618441462187053963540F4A104916
:104F50006360E260A1620B606362E26211F014FEC2
:104F600080239B052F64EB6490230A4A3000EA50AB
:104F7000FFF7BEFF80BCB846F0BDC0460000115030
:104F800039060020B42F002084001050000110507A
:104F90008000105010D001000B785B0602D14B78D6
:104FA000052B00D070478A78014B1A60FAE7C0469B
:104FB00000001150F0B5C64600B5CC7888780A7963
:104FC0004B797F21A40701401B02C50913434F0001
:104FD000A20F1400324E7A195201B21890700120BB
:104FE0006840507000205B055B0DD0701383D47651
:104FF0008046CA00012D33D02A4884468801624485
:105000008446B4446046826040461060002933D034
:10501000254AC90090466246414451603F223F33D1
:105020009343022C00D15B0020487A190168520199
:10503000B218D1601E4ACB18036051405A408023F9
:1050400088465B019A4228D84346A4061C43802325
:105050007F197F01F61972681B062343136011E064
:1050600014488446880162448446B444604682629F
:1050700040461060002909D100236D0175196B604D
:105080000D4BEB60012080BCB846F0BD084AC9005A
:105090009046624641445162C0E7FDF741FAD3E7CA
:1050A000B42F002084001050040010506CCD00205C
:1050B00000001050800010500001105010B511F089
:1050C00063FD10BD10B57F200C0020404000E409B6
:1050D000110000191A00034B4001C01800F05EF8DF
:1050E000012010BDB42F00207F23180010B5084008
:1050F0000B420BD0C90980224000074B40184001E9
:105100000021C018120111F08FFD10BD0223034AC7
:10511000C9095B1A9366EEE7B42F002000201150F6
:105120007F22130010B50B400A4200D110BDC909FF
:105130005B005B1804485B01C01800230022034990
:10514000C37011F071FDF1E7B42F0020FFF7FFFFEE
:1051500080220D4B520410B51A600C4B0C491A609A
:1051600010008B689843FBD10A4C9C220021200040
:10517000FFF734F98022002152010748FFF72EF98A
:105180000923636710BDC04600E0004000F0004006
:1051900000C000400000115000001050002310B566
:1051A000C3820133828283760161040011F0E4FC42
:1051B000002804D080219023074A8902D150200082
:1051C00011F002FD002802D00123237710BD20003A
:1051D00011F01AFDFAE7C04600201150024B587832
:1051E000431E9841C0B27047781D0020024B1878CA
:1051F0004007C00F7047C046781D0020034B187849
:10520000FF38431E9841C0B27047C0468C10002042
:10521000F0B5C64600B52A4E05003378FF2B01D005
:1052200001203FE0532200212648FFF7D7F8264C03
:105230002000FBF7C3FF254B1C60254C2000143CCD
:10524000FBF7D8FF200001F0E1FB224B224F1C604E
:10525000224B9846002B1DD03800FFF7F7FA204B61
:1052600018603B7842460024002A15D01D4A90461B
:1052700042469C4219D3904701343B78E4B2A342A2
:10528000F6D228003570FFF73BFE2800FFF720FE1E
:10529000012007E03B78E5E700F014FF3B78002BA6
:1052A000EFD0002080BCB846F0BD0D4A6300126804
:1052B0001B19DB00D318002BF3D01A68DBE7C046BC
:1052C0008C100020781D0020301D0020CC1D0020F7
:1052D00084100020D01D002002DF00204D48001067
:1052E000501A0020C5600010F0B5DE4657464E4605
:1052F0004546E0B591B001F0C1F8002800D115E1B4
:10530000CF4BD04E0193D04B0DAC0293CF4B9B466D
:1053100035686A69EFF3108172B61368002BFCD010
:10532000BFF35F8FA9612800210001F0B1F96A691C
:10533000AB69BFF35F8F0021116083F310880028F1
:1053400000D1F3E06378082BE2D8019A9B00D35890
:105350009F466368002BDBD0A0689847D8E77F2280
:105360002179B94D0A405300C809EB181B181800E1
:1053700001273030C578BD43C570C5780337BD43BC
:10538000C570002A00D1EEE0B14ADB7C002A06D0CD
:10539000B04A1278934200D247E19B1ADBB2002B4D
:1053A00000D0C3E0AC4DA36862792078A847AFE78E
:1053B0000122A54D01212B78042013432B703323A8
:1053C000EA5C8A43EA54EA5C8243EA540133EA5CC9
:1053D0008A43EA54EA5C8243EA54237800209A46DE
:1053E00000F024FD602223791A40602A0DD0402A63
:1053F00000D1BEE0DB06DB0E012B00D13CE1022B2D
:1054000000D1D3E0002B00D1C2E020780021FFF7CB
:105410006BFE80212078FFF767FE79E7029B1B78FF
:10542000DB0700D474E78D4B002B00D170E700E060
:1054300000BF6DE7844D2B78DB0700D468E7884B0D
:10544000002B00D164E728780007C00F00E000BF00
:105450005EE723787F4F7E4A984600253B78002AF6
:1054600049D0B1463E005F463A009D4265D3404672
:10547000904701353378EDB2AB42F5D24E46BB468C
:10548000714D532200212800FEF7A8FF1022FF21B2
:10549000E81CFEF7A3FF28002022FF211330FEF7AF
:1054A0009DFF2EE023786B4F694A984600253B7894
:1054B000002A2FD0B1463E005F463A00AB4247D8A3
:1054C0004046904701353378EDB2AB42F5D24E46B7
:1054D000BB465D4D532200212800FEF77FFF1022BE
:1054E000FF21E81CFEF77AFF28002022FF2113305D
:1054F000FEF774FF15E0404600F022FE3B78002BDB
:10550000BED000F089FC574B002B00D100E700E033
:1055100000BFFDE6404600F013FE3B78002BD8D0DC
:10552000494D00F079FC2379AB70F1E611B0F0BC85
:10553000BB46B246A946A046F0BD4B4A6B00126876
:105540005B19DB00D318002B00D1ADE15A688EE760
:10555000454A6B0012685B19DB00D318002B00D1A1
:10556000A5E15A68ACE7A3686279207800F072FC84
:10557000CEE63E48002800D147E700F057FC012165
:1055800050460EAA00E000BF002800D0C0E63CE76D
:10559000202A00D1A5E0002A00D036E76379092B44
:1055A00000D932E7324A9B00D3589F467023217AB4
:1055B0000B4200D029E70F330B405B00CF09E818FE
:1055C000C019C07C039384462148002808D0214894
:1055D0000078844500D2A7E06346181AC3B29C46FF
:1055E0006046002800D099E0002A00D058E1214B05
:1055F000984663791A00994602239A43012A00D1FA
:1056000058E14B46002B00D0FFE6039B0CAAEB1899
:10561000DB193033DB7802329B07DB0F13805046F7
:1056200002230EA900F0A2FB72E60F4A580012688E
:10563000C318DB00D318002B00D177E71D69B2E651
:1056400094720110D01D0020781D002041610010CF
:105650004D48001002DF00203563001000000000FC
:105660000000000000000000501A002000000000B0
:10567000B872011020730110237A0F2B00D9C4E6F1
:10568000B84AEB18DB78002A05D0B74A1278934263
:1056900065D39B1ADBB2002B00D0B6E6B348B44DFD
:1056A00000F0C4FB01215046EB680EAA9847002881
:1056B00000D02DE66022150023791D401A4200D04B
:1056C000A3E663790A3B012B00D99EE600F0AEFB0E
:1056D00063790A2B00D12FE150460EA900F030FB70
:1056E00016E6237A0F2B00D98FE69E4AEB18DB785B
:1056F000002A06D09C4A1278934200D2FDE09B1A01
:10570000DBB2002B00D080E69848994D00F08EFB6C
:1057100001215046EB680EAA984735E7002A00D0D1
:1057200073E60023984664E763465B009846C444EA
:105730006346DB009C468F48006860448046002A30
:1057400000D156E7002800D15FE6C06800F06EFB8C
:10575000434601215046DB680EAA984714E7854A64
:1057600059001568CB18DB00ED18002D00D14CE670
:10577000E86895E7E388012B00D046E608222B78FD
:10578000504693430EA92B7000F0DAFAC0E50220D0
:1057900029780CAB9A1C8B068908DB0F01400B4360
:1057A0003CE7A37999466B78994507D06B78002B35
:1057B00000D049E14B46002B00D0E7E04B46504675
:1057C0000EA96B7000F0BCFAA2E56B780CAA02324D
:1057D0001370504601230EA900F0C8FA98E5E3883B
:1057E0001A0AD8B20F2A00D90FE663499300CB58A2
:1057F0009F460EA800F020FB5046A179FFF76EFBF4
:1058000002222B7813432B7082E5E388012B00D012
:10581000FBE508222B78504613430EA92B7000F0AD
:105820008FFA75E5554B002B00D1EEE500E000BF87
:10583000021E00D1E9E5D37891781B020B43504654
:105840000EA900F093FA9FE64D4B002B00D1DCE54A
:1058500000E000BF021E00D1D7E5504613780EA924
:1058600000F084FA90E62189FFF7F2F9021EF4D1E4
:10587000CBE5022A00D15EE1424B002B00D1C4E50A
:1058800000E000BF0200002A00D1BEE5D3E7FFF729
:10589000D7F9122302000EA9504600F067FA73E60A
:1058A000334B3248984651E74E46BB4629E64E46B2
:1058B000BB4635E6E288002A09D14B46012B27D0AA
:1058C000039BEB18DF193037FB789B073DD5434628
:1058D000002B00D11CE5D86800F0A8FA434601214E
:1058E000DB680EAA50469847002000F09FFA342348
:1058F000EB5CDB0700D50BE5EEE61E4A59001568A8
:10590000CB18DB00ED18002D00D17EE5E868FDE640
:10591000039BEB18DF193037FB789B07D7D51A4B61
:105920001878FFF7FDFB0222FB7893434A46FB7091
:10593000FB789343FB70CAE70CAB9A1C50460123DB
:105940000EA9157000F012FAE2E40F4B1878FFF779
:10595000CBFB0222FB7813430122FB70FB7813433D
:10596000FB70B4E74D48001002DF002051620010C8
:1059700020730110501A0020E07201100000000096
:1059800000000000000000008C100020581EC0B273
:10599000FFF75AF9002800D137E543780793022B27
:1059A00000D032E50121C37907009A115B110A404A
:1059B0000B4052011B0113432A782F318A431343B2
:1059C0002B70C37882781B021343C3180693664B6F
:1059D000A8460593654B09370A934B46B1460B938E
:1059E000069BBB4200D8AAE001227B7803920B2BD6
:1059F00003D1FB7803933B78FF187B78042B21D1EC
:105A00000025069BDB1B9BB20493059B1A780A9B1F
:105A1000AB424DD0564B0893564B0993089B099EB9
:105A2000AA427FD839005046049A984784460828ED
:105A300002D9049A824247D2059B01351A78EDB209
:105A4000AA42EBD24E46E0E45046FFF737FBAB7874
:105A5000454F464A039300213B78002A1FD0464A0F
:105A600004922A000D009046049A9D4250D350465D
:105A7000904701353B78EDB2AB42F5D24546532213
:105A800000212800FEF7AAFC1022FF213B48FEF768
:105A9000A5FC2022FF213A48FEF7A0FC05E0504675
:105AA00000F04EFB3B78002BE9D0039BAB7081E606
:105AB000049E39003200504600F058FB8446082806
:105AC000C0D98642BED32B4E039B012B44D000226B
:105AD000404609E0BB78D318DBB2C318D978FF2958
